:020000040800F2
:10000000B80A002459030008F9530008C950000831
:10001000F1530008D111000831660008000000000B
:1000200000000000000000000000000079560008F9
:10003000D91100080000000031540008B156000832
:1000400077030008770300087703000877030008A8
:100050007703000877030008770300087703000898
:100060007703000877030008770300087703000888
:100070007703000877030008770300087703000878
:1000800077030008770300087703000811120008BF
:100090007703000877030008770300087703000858
:1000A0007703000877030008770300087703000848
:1000B0007703000877030008770300087703000838
:1000C0007703000877030008770300087703000828
:1000D000770300082166000877030008770300080B
:1000E000770300087703000800000000770300088A
:1000F00077030008770300087703000877030008F8
:1001000077030008770300087703000877030008E7
:1001100077030008770300087703000877030008D7
:1001200077030008770300087703000877030008C7
:1001300077030008770300087703000877030008B7
:1001400000000000000000000000000000000000AF
:100150007703000877030008770300087703000897
:100160007703000877030008770300087703000887
:1001700077030008770300087703000800000000F9
:100180007703000877030008770300087703000867
:100190007703000877030008770300087703000857
:1001A0007703000877030008770300087703000847
:1001B0007703000877030008770300087703000837
:1001C0007703000877030008770300087703000827
:1001D0007703000877030008770300087703000817
:1001E0007703000877030008770300087703000807
:1001F00077030008770300087703000877030008F7
:1002000077030008770300087703000877030008E6
:1002100077030008770300087703000877030008D6
:100220007703000877030008770300080000000048
:100230007703000877030008000000007703000838
:1002400077030008770300087703000877030008A6
:100250007703000877030008770300087703000896
:100260007703000877030008770300087703000886
:1002700077030008770300087703000800000000F8
:1002800077030008770300087703000800000000E8
:10029000000000007703000800F002F800F04CF8BE
:1002A0000AA090E8000C82448344AAF10107DA45D1
:1002B00001D100F041F8AFF2090EBAE80F0013F0D7
:1002C000010F18BFFB1A43F001031847009F0000FD
:1002D000209F0000103A24BF78C878C1FAD852078E
:1002E00024BF30C830C144BF04680C6070470000B0
:1002F0000023002400250026103A28BF78C1FBD82F
:10030000520728BF30C148BF0B607047642900F016
:10031000F580782900F02E81002070471FB509F084
:1003200065FE9DE8030000F055FD00F079FB1FBD60
:1003300010B500F0DEFB10BD00F012FC1146FFF717
:10034000EDFF08F061FF00F019FD03B4FFF7F0FFC7
:1003500003BC08F0C9FC00000A4880470A488047EF
:100360000A480047FEE7FEE7FEE7FEE7FEE7FEE796
:10037000FEE7FEE7FEE7FEE705480649064A074BAB
:1003800070470000F1110008B956000899020008F2
:10039000B8040024B80A0024B8060024B8060024D3
:1003A000704753EA020C00F069802DE9F04B4FF0E2
:1003B0000006002B1FBFB3FA83F503FA05F424FAF5
:1003C00005F65E4012BF1643B2FA82F502FA05F452
:1003D000C5F120051EBF22FA05FC44EA0C042035B5
:1003E00056EA044C4FEA144418BF641C4FF000084E
:1003F0004FF00009904271EB030C39D3002919BF6B
:10040000B1FA81F701FA07F6B0FA80F700FA07F6B9
:10041000C7F120071EBF20FA07FC46EA0C0620376A
:10042000B6FBF4FCA7EB0507103F07F01F0BCBF161
:1004300020062CFA06F60CFA0BFB44BFB346002646
:10044000202FA4BF5E464FF0000B5BEA060C08BFEE
:100450004FF0010B19EB0B0948EB0608ABFB027CD4
:1004600006FB02CC0BFB03CCC01B71EB0C01C1E7FC
:100470000B46024641464846BDE8F08B13B508439B
:1004800018BF4FF0FF300146AFF30080BDE81C40BD
:10049000704700000FB4044910B503AA029800F099
:1004A0008DFA10BC5DF814FB7400002470B504468E
:1004B00085690068C10601D5302600E02026C00706
:1004C00007D070BDD4E9012130469047206A401C16
:1004D00020626D1EF6D570BD70B504468569007842
:1004E000C00707D170BDD4E9012120209047206AC0
:1004F000401C20626D1EF6D570BD00002DE9F04154
:100500000646002410687529314616A510D0AFF3B1
:100510000080002802DA404213A507E031688A070C
:1005200001D512A502E0490704D511A5012401E077
:10053000AFF3008000210A2206F1240709E0B0FB96
:10054000F2FCB0FBF2F302FB1C003030785418468A
:10055000491C0028F3D123462A463046BDE8F04125
:1005600000F0D3B9000000002D0000002B000000B7
:100570002000000070B504460D4621461068AFF318
:1005800000802188090502D50F4A7A4402E00E4A0C
:100590007A440E32002104F1240305E000F00F0636
:1005A0000009965D5E54491C0028F7D1207800238D
:1005B000000704D5702D02D009B102231132204664
:1005C000BDE8704000F0A1B9789A00002DE9F05F15
:1005D000894604464FF0000ADFF824B1FB44C0F816
:1005E00020A02046E168884700287DD0252806D035
:1005F000D4E901219047206A401C2062F1E70025E0
:100600005F462046E16888472028064607DB312EF2
:1006100005D2B81910F8200C08B10543F1E7A80776
:1006200001D525F00405C4F81CA00027C4F818A0C3
:100630002A2E09D0304609F0B3FC38B304EB870802
:10064000303EC8F8186019E059F8041B204604EB46
:1006500087029161E1688847012F064618D1E06959
:10066000002820DA25F020051DE0D8F8180000EB5E
:10067000800006EB40003038C8F818002046E168DA
:100680008847064609F08CFC0028EED1012F0AD0DD
:100690002E2E08D12046E16888477F1C0646022F8F
:1006A00045F02005C4DBA069002803DA404245F08C
:1006B0000105A061E80701D025F01005A6B1A6F15B
:1006C0004100192802D8203645F400654A463146D3
:1006D000204625604D46FFF719FE60B1012807D07E
:1006E000ED1D25F0070000E007E000F1080978E7BC
:1006F00005F1040975E730467AE7206ABDE8F09F06
:100700004E9A000010B5044603E008F069FD401C55
:1007100009D014F8010B05490028F6D1BDE81040B6
:100720000A2008F05DBD4FF0FF3010BD74000024BA
:10073000032A40F2308010F0030C00F0158011F80D
:10074000013BBCF1020F624498BF11F801CB00F8E5
:10075000013B38BF11F8013BA2F1040298BF00F839
:1007600001CB38BF00F8013B11F0030300F02580F6
:10077000083AC0F0088051F8043B083A51F804CB1D
:10078000A0E80810F5E7121D5CBF51F8043B40F8E3
:10079000043BAFF30080D20724BF11F8013B11F8EE
:1007A00001CB48BF11F8012B24BF00F8013B00F832
:1007B00001CB48BF00F8012B704710B5203AC0F0BC
:1007C0000B80B1E81850A0E81850B1E81850A0E824
:1007D0001850203ABFF4F5AF5FEA027C24BFB1E8BD
:1007E0001850A0E8185044BF18C918C0BDE8104000
:1007F0005FEA827C24BF51F8043B40F8043B08BF09
:100800007047D20728BF31F8023B48BF11F8012BCF
:1008100028BF20F8023B48BF00F8012B70474FF07B
:10082000000200B5134694469646203922BFA0E840
:100830000C50A0E80C50B1F12001BFF4F7AF09074C
:1008400028BFA0E80C5048BF0CC05DF804EB89003D
:1008500028BF40F8042B08BF704748BF20F8022B80
:1008600011F0804F18BF00F8012B70470000000006
:1008700030B44FF0013C50F8042BCCFA52F451F84C
:10088000043BD51A20D1FCB950F8042BCCFA52F411
:1008900051F8043BD51A17D1B4B950F8042BCCFA4F
:1008A00052F451F8043BD51A0ED16CB950F8042B10
:1008B000CCFA52F451F8043BD51A05D1002CDAD009
:1008C00030BC4FF00000704729BAB1FA81F111F045
:1008D0001801D1F120008440F2D1CA40CB4012F07F
:1008E000FF0213F0FF0330BCD01A70477047704707
:1008F0007047704710B500F073F8006810BD10B570
:10090000044600F06DF8046010BD2DE9F0470D4677
:1009100099469246044600F124080168880604D5E9
:10092000E06921F01001216000E00120A84201DD12
:10093000471B00E00027A1697A1902EB0900081A99
:10094000A0612078C00602D42046FFF7AFFD002644
:1009500008E0D4E901211AF806009047206A401CFB
:10096000761C20624E45F4DB2078C0060AD520466E
:10097000FFF79CFD06E0D4E9012130209047206A72
:10098000401C2062381EA7F10107F4DC07E0D4E91F
:10099000012118F805009047206A401C2062281E9B
:1009A000A5F10105F3DC2046FFF796FD207800064F
:1009B00002D50220BDE8F0870120FBE7074B70B5A8
:1009C0000D467B4400F015F80446284600F024F854
:1009D00010B14FF0FF3070BD204670BD1B88000085
:1009E000004870471C01002401694A1C0261087814
:1009F000704700B58FB0CDE901310021059105495F
:100A00007944CDE9031011466846FFF7DFFD0FB0CA
:100A100000BD0000E5FFFFFF007B00F08000704795
:100A200010B542485421FFF7FAFE41485421FFF720
:100A3000F6FE40485421FFF7F2FE3F493B483C4A4E
:100A40003F4B08603D490A603A491960531C0365F1
:100A5000481C1065012008653B48344A39A1784498
:100A600000F0EEF820B9384878440A3800F08FF9E1
:100A700037482F4A35A1784400F0E2F820B93448CD
:100A800078440A3800F083F932482A4A2FA1784482
:100A900000F0D6F820B92F4878440A3800F077F9EA
:100AA00040232248DC000021224600F0A5F820B1B6
:100AB00025487844543800F06AF91D4822464023FE
:100AC000002100F099F820B121487844543800F012
:100AD0005EF9184822461023002100F08DF8002806
:100AE00006D01C487844BDE81040563800F04FB995
:100AF00010BD104870B5006D20F001040B4800F0E7
:100B000017F90B4800F014F90A4800F011F909E050
:100B1000206D20F00105204600F00AF9204600F083
:100B200044F82C46002CF3D170BD000020000024B6
:100B300074000024C80000240000002404000024E5
:100B400008000024720000003A97000077000000BF
:100B50002997000002970000004870471C010024FC
:100B60007546FFF7F9FFAE4605006946534620F08B
:100B70000700854618B020B5FFF7FEFBBDE8204012
:100B80004FF000064FF000074FF000084FF0000B49
:100B9000AC46ACE8C009ACE8C009ACE8C009ACE8B8
:100BA000C00921F007018D46704770B50446051F46
:100BB00000F0F4F80068002C14BF446870BD002CED
:100BC00018BFAC423CBF20466468F8D301680A18DD
:100BD000AA4218BF456003D12A6805461144016046
:100BE00028684119A1421CBF6C6070BD61686960D2
:100BF00021680844286070BD70B5C468A50713D08B
:100C0000650211D4B2F5807F09D0B2F5007F06D01D
:100C1000B2F5806F08D1012300F1240106E05D1ECA
:100C20006FF07F46B54201D3012070BD0161C36101
:100C3000416024F470611143C160002070BD000068
:100C40002DE9F0410C461646070047D0104600F04B
:100C50006FF82078611C61280AD0722802D07728AA
:100C60003CD102E00125002405E00225042402E035
:100C7000082448F2020511F8010B2B2806D062283F
:100C800009D011F8010C74280AD00BE045F00305D7
:100C900044F00204EFE745F0040544F00104EAE7FC
:100CA00044F010043846214608F02EF8411C15D0B7
:100CB0000021316171604FF40071F560F161706184
:100CC000200704D530460222002100F0E1F8306D03
:100CD00040F0010030653046BDE8F0810020FBE7C0
:100CE0002DE9F0410D460646104C206DC10704D099
:100CF000410804D020F00104F7E722460EE054201A
:100D000000F097F807000ED0206D47F0010108436E
:100D1000542120653846FFF782FD3A462946304681
:100D2000BDE8F0418CE70020D6E700002000002459
:100D30002DE9F04704464FF000094FF0FF37C56832
:100D4000D4E90486A80707D0204600F051F93046C0
:100D500007F0BEFF002802DA3846BDE8F087280514
:100D600002D54046FFF721FF4C212046FFF757FDF3
:100D7000206D20F0010020654846EEE710B50446DE
:100D8000AFF300802046BDE81040FFF7DEBA10B593
:100D900000F078F9BDE8104000F06EB900487047E7
:100DA00024010024704770477047704738B50446E7
:100DB0000A4600206946AFF30080002808BF38BD0E
:100DC00002460099204600F07EF9012038BD01203E
:100DD00000F0CDB9F8B5AFF30080054600200C4611
:100DE000102000BF0646A819A0420DD93246694618
:100DF0000020AFF30080070008BF00F0B8F90098AA
:100E0000A04218BF0546C419FFF7C8FF0560074692
:100E1000F01D20F007004619284600F04DF9B442B5
:100E200008BFF8BDA21B31463868BDE8F84000F0A5
:100E30004AB970B50646FFF7B1FF056806F10B0029
:100E400020F00704B4429CBF002070BD2B466A68A6
:100E5000BAB11068A04210D304F1080188423CBF27
:100E60005068586007D35168101941601168091B18
:100E7000016058601460101D70BD13465268002A4E
:100E8000E7D121462846FFF791FF0028DED170BD4B
:100E90002DE9F041044616460D464769007B800760
:100EA0002ED0384607F028FF50BB3EB3012E02D0AB
:100EB000022E25D104E0204600F01FF905441DE074
:100EC000384607F015FFE168002841F01001E160A5
:100ED00005DA204600F058F80120BDE8F081C9038A
:100EE0000BD56268E16A914200D81146A2691144AB
:100EF0002269891A814200DD08460544002D01DA85
:100F00000220EAE7E16A6068E268814206D2910362
:100F1000E06203D522F4003141F01002A6690027F7
:100F2000AE4213DCE16A814201D90B4600E0034680
:100F300003EB060C2369ACEB030CAC4506DD8142E8
:100F400001D98C4600E084469C4505D1A760276006
:100F500042F02000A5620DE0AD1BE669AE1B8142A8
:100F6000A66000D90846C01A281A20605819606087
:100F700022F0200003490840E060002084F8487017
:100F8000ABE70000BFCFD7FFC16821F4001141F0EB
:100F90008001C16000218160016070472DE9F04748
:100FA000814614460E464FF0FF383248D5685769DF
:100FB000054209D03846A16907F0DAFE002811DBA6
:100FC0002C48C0430540E5602B463246494638462A
:100FD00007F0D2FEA16920F00042B21A11440028A5
:100FE000A16103D02046FFF7CFFF4046BDE8F08760
:100FF00070B504460569C06A6168884200D8084631
:10100000E16821F42011E160C90312D5A84208D09B
:101010002246411B2846FFF7C1FF10B14FF0FF30B9
:1010200070BD0020E562C4E90150E06820F4803022
:10103000E060002070BD10B50446C06820F02000BC
:10104000E060A16AA06988420DD02046FFF7D0FF7A
:10105000E06820F4405040F01000E060A06AA06119
:101060002069E062606044F24001E0688843E0602B
:1010700010BD000010000200002801D007F034BEAF
:101080007047000010B5014602A000F057F801209B
:1010900010BD000053494752545245443A2052650E
:1010A0006469726563743A2063616E2774206F709F
:1010B000656E3A200000000000210160C0E90110C7
:1010C000704710207047034640688C46002818BFC0
:1010D00088423CBF03464068F8D3186818448842E9
:1010E00007D00CF1030020F00700001D411A521A2E
:1010F0000146081D0A60FFF758BD10B50146C268D9
:10110000900703D0900607D5886A0AE0FFF768FCCD
:1011100001210160881E10BD8B69486818440B6965
:10112000C01A91F848301BB191F84910401A10BD0F
:101130001103FCD50028FADD401E10BD70B5054630
:101140000C460A2000E06D1C07F032FE35B128780D
:101150000028F8D102E0641C07F02AFE14B12078C0
:101160000028F8D1BDE870400A2007F021BE10B574
:1011700000F004F8BDE81040FFF77EBF10B501286D
:1011800005D0002103A0FFF7D9FF012010BD09A160
:10119000F8E7000053494752544D454D3A204F75EA
:1011A00074206F662068656170206D656D6F72795F
:1011B000000000003A2048656170206D656D6F7217
:1011C0007920636F727275707465640000000000AE
:1011D000FEE7000000000000704700000000000073
:1011E000EFF3108072B600BFFEE7000000000000C1
:1011F00044F60C00C5F60200016841F002010160EE
:1012000050F8081C8904FBD570470000000000005E
:1012100080B540F2E820C2F2004000F075FF80BDCA
:1012200070B50D46014609A01446FFF733F944B1E5
:101230006E1E14A516F8011F2846FFF72BF9013C76
:10124000F8D112A0FFF75EFA70BD00BF526563656A
:10125000697665642043414E204D6573736167650F
:10126000202D2049443A203078253033582C204C0A
:10127000656E6774683A2025642C20446174613A75
:101280002000000025303258200000000D00000032
:1012900080B540F2C423C2F200434FF0000C186046
:1012A0004FEA0240C3E901CCC3E9030CC3F814C000
:1012B0004FF40010C3E9060CC3F820C049B1501E1A
:1012C0003F2806D840F28420C2F20040FFF730FAEF
:1012D00007E032B940F284204021C2F20040FFF71B
:1012E0009EFA40F27C1040F2C42140F28422C2F205
:1012F0000040C2F20041C2F2004200F0B1FD80BDE8
:101300002DE9F04F82B00168C76BD0E90DA2D1F88A
:1013100084304FF6FC74A34343EA8A03C1F8843057
:10132000D1F88430019223F47F0343EA0243C1F8E9
:10133000843002EB0A03D1F888406FF38F0444EA4B
:101340008304C1F88840D1F88840009724F4FE0453
:1013500044EA0744C1F8884003EB4704D1F8A030C1
:101360006FF38F0343EA8403C1F8A030D1F8A05093
:10137000D0F840B025F4FE0545EA0B45C1F8A05071
:10138000D0F84480D1F8B0506FF38F0508FB0B44C0
:1013900008FB0BF845EA8405C1F8B050D1F8B060FD
:1013A000856C26F4FE0646EA0546C1F8B060D0F822
:1013B0004C9009FB0547D1F8AC406FF38F0409FB53
:1013C00005F944EA8704C1F8AC40D0E9144606FBAD
:1013D0000472D1F8F0706FF38F0747EA8207C1F803
:1013E000F070D1F8F030876D23F47C1343EA0743A3
:1013F000C1F8F03002EB4702D1F8C0306FF38F0331
:1014000043EA8202C1F8C020D1F8C020C36D22F4A3
:101410007C1242EA0342C1F8C0204AF60042D1F8E9
:10142000C0C0D0F860E0C4F20002019D02EB8A0265
:101430002CF07C5C06FB04FA009C4CEA0E6C02EB80
:101440008505C1F8C0C005EBC406846E06EB8801B3
:10145000056701EB890C63430CEB8A05C266C0E9A2
:101460001E1C0EFB04F105EBC70707EB8303C0F856
:1014700084704DF2FC37466703EB8101C4F200072C
:10148000B942C0F88050C0F88830C0F890100AD92E
:10149000D0F89C1041F02001C0F89C10032180F886
:1014A000981001210CE0D0F890108A4207D2002158
:1014B00042F8041BD0F890309A42F9D300E00021A2
:1014C000084602B0BDE8F08FF0B5D1F804C0D1F8FD
:1014D00010E0BCF1000FD1F808C006D00C684EEA4D
:1014E0000C05254345F0804C04E00D684CEA0E04E1
:1014F00044EA854C856ED0F88470D1E907466B4389
:101500008D6944EA0660D1F814E0CC68054307EB26
:10151000830045EA0E0647F823C046EA04434360C9
:10152000CB68002B08BFF0BD4AF2AB1C083001327B
:101530000023C0F6000C00BFD71857F8017CC75035
:10154000CF6804331CF80770BB42F5D3F0BD000030
:101550002DE9F041044601F0F3F904B3054694F88F
:10156000350002281ED140F20F472068C4F202075E
:1015700040F26F48B842C4F2020817DC6F21C4F28F
:101580000201884223DC3F21C4F20201884239DC97
:101590001021C4F20201884258D0282151E00120D4
:1015A000BDE8F081802060650120ABE240451ADC97
:1015B00040F23F41C4F2020188422ADC40F210416D
:1015C000C4F20201884241D040F2284139E09F2113
:1015D000C4F20201884225DC7021C4F20201884273
:1015E00034D088212DE040F29F41C4F202018842AC
:1015F0001FDC40F27041C4F20201884226D040F262
:1016000088411EE04021C4F2020188421ED05821C8
:1016100017E040F24041C4F20201884216D040F285
:1016200058410EE0A021C4F2020188420ED0B82138
:1016300007E040F2B841C4F20201884206D040F20D
:10164000A041C4F20201884240F0EA812668316874
:1016500021F01E02314641F8142B6FF080020B6816
:10166000404502EA03020A6019DC9F21C4F202012C
:10167000884231DC5721C4F20201884256DC102135
:10168000C4F20201884200F091802821C4F20201D4
:10169000884200F08B804021C4F2020184E045F2D0
:1016A0002F41C5F6020188422BDC40F2B741C4F25B
:1016B0000201884248DC40F27041C4F202018842D3
:1016C00074D040F28841C4F2020188426ED040F2E8
:1016D000A041C4F2020167E040F22741C4F20201D6
:1016E000884240DCA021C4F2020188425ED0B821C9
:1016F000C4F20201884259D040F21041C4F2020102
:1017000052E045F26B41C5F6020188423CDC45F2ED
:101710003041C5F60201884248D045F24441C5F641
:101720000201884242D045F258413BE05821C4F2C0
:10173000020188423AD07021C4F20201884235D0B9
:101740008821C4F202012FE040F2B841C4F2020144
:1017500088422BD045F20841C5F60201884225D0C7
:1017600045F21C411EE040F22841C4F202018842C9
:101770001CD040F24041C4F20201884216D040F22F
:101780005841C4F202010FE045F26C41C5F6020176
:1017900088420BD045F29441C5F60201884205D03B
:1017A00045F28041C5F60201884269D1216EB842F6
:1017B0000A6822F480720A6010DC6F21C4F2020110
:1017C00088421CDC3F21C4F20201884232DC102135
:1017D000C4F20201884252D028214AE040451ADC76
:1017E00040F23F41C4F2020188422ADC40F210413B
:1017F000C4F20201884242D040F2284139E09F21E0
:10180000C4F20201884225DC7021C4F20201884240
:1018100035D088212DE040F29F41C4F20201884278
:101820001FDC40F27041C4F20201884227D040F22E
:1018300088411EE04021C4F2020188421FD0582195
:1018400017E040F24041C4F20201884217D040F252
:1018500058410EE0A021C4F2020188420FD0B82105
:1018600007E040F2B841C4F20201884207D040F2DA
:10187000A041C4F20201884208BF206800E020684D
:10188000016821F0010101603068C0070BD001F050
:1018900057F8401B0628F7D320206065032084F802
:1018A000350001202EE12068B84210DC6F21C4F21F
:1018B000020188421CDC3F21C4F20201884232DC72
:1018C0001021C4F20201884250D028214AE040454C
:1018D0001ADC40F23F41C4F2020188422ADC40F2A5
:1018E0001041C4F20201884240D040F2284139E060
:1018F0009F21C4F20201884225DC7021C4F202015A
:10190000884233D088212DE040F29F41C4F2020189
:1019100088421FDC40F27041C4F20201884225D0A7
:1019200040F288411EE04021C4F2020188421DD0ED
:10193000582117E040F24041C4F20201884215D01C
:1019400040F258410EE0A021C4F2020188420DD0BD
:10195000B82107E040F2B841C4F20201884205D044
:1019600040F2A041C4F2020188425ED1D4E91612CD
:1019700002F01F023F2303FA02F28A6040455EDC58
:101980009F21C4F20201884214DC5721C4F20201F3
:10199000884226DC1021C4F20201884200F0A280B5
:1019A0002821C4F20201884200F09C804021C4F248
:1019B000020195E040F22741C4F2020188421EDC98
:1019C000A021C4F20201884200F08C80B821C4F248
:1019D0000201884200F0868040F21041C4F2020108
:1019E0007EE05821C4F2020188427BD07021C4F20B
:1019F0000201884276D08821C4F2020170E040F2F0
:101A00002841C4F2020188426CD040F24041C4F245
:101A10000201884266D040F25841C4F202015FE000
:101A200021686FF00E020E4619E6D4E9161202F094
:101A30001F02012303FA02F24A604045A0DD45F28D
:101A40002F41C5F60201884216DC40F2B741C4F2CC
:101A50000201884225DC40F27041C4F20201884252
:101A600040D040F28841C4F2020188423AD040F2AC
:101A7000A041C4F2020133E045F26B41C5F6020118
:101A800088421DDC45F23041C5F60201884229D06A
:101A900045F24441C5F60201884223D045F258413F
:101AA0001CE040F2B841C4F2020188421AD045F26B
:101AB0000841C5F60201884214D045F21C410DE0F0
:101AC00045F26C41C5F6020188420BD045F29441C3
:101AD000C5F60201884205D045F28041C5F60201F3
:101AE00088420BD1616EA26EE06E4A6030B101682F
:101AF00021F480710160D4E91C014160012084F867
:101B000035000020002184F83410BDE8F081000089
:101B100080B5D8B190F83510022919D140F20F42A2
:101B20000168C4F20202914216DC6F23C4F2020380
:101B3000994226DC3F23C4F2020399423CDC102385
:101B4000C4F2020399425AD0282354E0012080BDF8
:101B500080214165012080BD40F26F43C4F2020341
:101B600099421ADC40F23F43C4F2020399422ADC54
:101B700040F21043C4F20203994240D040F228439D
:101B800039E09F23C4F20203994225DC7023C4F29A
:101B90000203994233D088232DE040F29F43C4F2E0
:101BA000020399421FDC40F27043C4F202039942DF
:101BB00025D040F288431EE04023C4F2020399423C
:101BC0001DD0582317E040F24043C4F2020399426B
:101BD00015D040F258430EE0A023C4F2020399420C
:101BE0000DD0B82307E040F2B843C4F20203994293
:101BF00005D040F2A043C4F20203994270D1914251
:101C00004FF0040280F8352010DC6F22C4F202028B
:101C1000914220DC3F22C4F20202914236DC1022C3
:101C2000C4F20202914254D028224EE040F26F42A8
:101C3000C4F2020291421ADC40F23F42C4F20202B4
:101C400091422ADC40F21042C4F20202914240D09A
:101C500040F2284239E09F22C4F20202914225DC80
:101C60007022C4F20202914233D088222DE040F269
:101C70009F42C4F2020291421FDC40F27042C4F261
:101C80000202914225D040F288421EE04022C4F276
:101C9000020291421DD0582217E040F24042C4F2A5
:101CA0000202914215D040F258420EE0A022C4F246
:101CB000020291420DD0B82207E040F2B842C4F2CD
:101CC0000202914205D040F2A042C4F202029142C7
:101CD00024D10068016821F001010160002080BD6D
:101CE0000268136823F00E03136045F25742C5F6ED
:101CF000020291420A6822F001020A6014DC45F2F5
:101D00002F42C5F6020291421DDC45F20842C5F69B
:101D1000020291422CD045F21C4225E0086820F0D6
:101D200001000860002080BD45F27F42C5F6020236
:101D3000914211DC45F25842C5F60202914217D099
:101D400045F26C4210E045F23042C5F60202914283
:101D50000ED045F2444207E045F29442C5F6020235
:101D6000914205D045F28042C5F6020291421AD155
:101D7000D0E9181CD0E916E30A6822F480720A60E0
:101D800003F01F01012202FA01F1CEF80410816E66
:101D9000CCF80410C16E31B10A6822F480720A6076
:101DA000D0E91C124A60012180F83510026D002133
:101DB00080F834100AB190470021084680BD000029
:101DC000B0B5044600F0BCFD40F214010546C2F275
:101DD0000041621C097818BF0C4400BF00F0B0FD40
:101DE000401BA042FAD3B0BD90F89830013B012BC4
:101DF0000BD80068836D0B420CD0836D0B408B4277
:101E00000CD1C36D43F0020309E000F19C010120F5
:101E1000022221E0C36D43F0010300E00323C36508
:101E20008B0504D5D0F8E0301343C0F8E0304B0503
:101E300004D5D0F8E4301A43C0F8E4204FF6FF721E
:101E4000436DC3F6CF720A401A4342658A0F4AF6C1
:101E500014010020C4F200010B681A430A607047A5
:101E6000B0B5044690F8980002281AD12068D0F83E
:101E7000C03013F07C5F19D0D0F8C4309B021AD464
:101E8000D0F8C400C0F3044520462B46FFF71CFBE6
:101E900020680121A940C0F8D0100020C4F8941097
:101EA000B0BDD4F89C0040F0080008E0D4F89C00D5
:101EB00040F0200003E0D4F89C0040F40070C4F827
:101EC0009C000120B0BD0000704700000000000031
:101ED00080B590F89820013A012A0AD80A68002AA9
:101EE000CA680ED00B69072A43EA427E16D18B6975
:101EF00019E0D0F89C1041F00201C0F89C100120BC
:101F000080BD072A18D10A69D1F81CC012048B6958
:101F100042EA0C221A4342F0605217E0D1F808C09E
:101F20004B6943EA8C73006F496800EBC10240F8CB
:101F300031E00020536080BD8B68D1F810C09B0752
:101F400043EAC2624B6942EA0C421A434968C06ED6
:101F500040F82120002080BD7047000000000000F4
:101F6000704700000000000070B590F89850022DF6
:101F700011D1402914D10468D4F8A05015F4FE0FF3
:101F80002BD0D4F8A4506D062CD0D4F8A450ED0179
:101F900030D4002531E0D0F89C1041F0080125E054
:101FA00041290FD10468D4F8B05015F4FE0F14D0B5
:101FB000D4F8B4506D0615D0D4F8B450ED0126D441
:101FC000002527E0056D8D4207D900F17C04D0F88B
:101FD00054E04FF0000C0D4626E0D0F89C1041F084
:101FE000200103E0D0F89C1041F48071C0F89C10EF
:101FF000012070BDD4F8A050ED0FD4F8A440C4F374
:10200000052404EB050E00F17404456C0BE0D4F8D4
:10201000B050ED0FD4F8B440C4F3052404EB050E22
:1020200000F17804C56CF44605FB0EF6246854F8FC
:10203000265015F08045556054F826E02EF0604596
:1020400008BFCEF38A4504EB860E156054F826507F
:1020500005F00055956054F8264004F000441461E2
:10206000BEF80440D461BEF8064014F00F04D460FA
:10207000DEF8044004F480145461DEF8044004F4F3
:10208000001494619EF8074004F07F041462DEF8A7
:1020900004404FEAD47454620ED00EF108054AF29F
:1020A000AB1E0024C0F6000E2E5D1E550134D6680E
:1020B0001EF80660B442F7D3402904D10068C0F886
:1020C000A8C0002070BD412904D10068C0F8B8C084
:1020D000002070BD1F2907D80068012202FA01F113
:1020E000C0F89810002070BD006801F01F010122A7
:1020F00002FA01F1C0F89C10002070BD0000000041
:1021000070470000000000002DE9F04F87B0044642
:102110004AF61000C4F2000001684AF61400C4F246
:1021200000000268206802EA010A056DD0F85490A8
:10213000076DD0F85480036D0293436D0193036DD6
:102140000693436D0593036D0493436D0393436DB1
:10215000066D06EA030B5FEACB530BD54FF4807193
:1021600001654AF610010020C4F200010860204613
:10217000FFF7C6FF05EA09064AF610095FEA4B5069
:10218000C4F200094FEA8A750ED52068D0F8DC1039
:10219000D0F8E42011404FF4806202650020C9F8B5
:1021A0000000204600F0E4FA08EA070806F470464A
:1021B00055B12068002101650AF00300C9F800004C
:1021C00020462946FFF780FEDDE9011000EA0107FD
:1021D00008F00F0546B12068314606650020C9F8B1
:1021E0000000204600F0CCFA07F0F00645B1206868
:1021F000294605650020C9F80000204600F064FA71
:1022000046B12068314606650020C9F80000204626
:1022100000F076FA5FEA0B5000F1BF805FEA8B5066
:1022200000F1C9805FEA0B3000F1D8805FEACB3063
:1022300009D520684FF4803101650020C9F80000FD
:10224000204600F091FA5FEA4B30DDE9031000EA26
:10225000010509D520684FF4802101650020C9F8E7
:102260000000204600F07CFA5FEA8B30DDE90510C3
:1022700000EA010005F060710CD522684FF40033CC
:1022800013650022C9F80020D4F89C2042F0800297
:10229000C4F89C2000F0715539B120680165002018
:1022A000C9F800002046FFF75BFE4DB120680565C8
:1022B0000020C9F80000D4F89C002843C4F89C0012
:1022C0002068A9F5016188425ED16068816889074C
:1022D0005AD0016A426A036A476A114003EA070258
:1022E00002F03005D0F82080D0F82490026A0492E1
:1022F00011F00F01D0F824B0026A0692426A0592EA
:10230000466AD0F820A003D00162204600F01CFAF3
:1023100008EA09072DB1606829460562204600F0E9
:102320001BFA06EA0A0007F4C0754006049800EAA2
:102330000B060AD560684023C16BC26B090C02F022
:102340003F020362204600F003FADDE9051000EACF
:10235000010706F4FC462DB1606829460562204657
:1023600000F0EEF907F4F02036B161680E62D4F89F
:102370009C103143C4F89C1030B161680862D4F8F5
:102380009C100843C4F89C00D4F89C0010B120466F
:10239000FFF7E2FD07B0BDE8F08F20684FF4006161
:1023A00001650020C9F80000204600F0EDF95FEA61
:1023B0008B507FF537AF2068D0F8D810D0F8E020E8
:1023C00011404FF4007202650020C9F80000204659
:1023D00000F0D2F95FEA0B307FF528AF20684FF4A8
:1023E000002101650020C9F80000204600F068F9CE
:1023F0005FEACB303FF51DAF25E70000000000008D
:102400002DE9F04130B34AF200080446C4F2000856
:102410000068404502D108F58070606094F898002B
:1024200028B9002084F89900204600F0F5F82068CB
:10243000816921F01001816100F082FA054600BF38
:1024400020688169090708D500F07AFA401B0B283B
:10245000F6D312E00120BDE8F081816941F001016D
:10246000816100F06DFA054620688169C90710D1C5
:1024700000F066FA401B0B28F6D3D4F89C0040F01D
:102480000100C4F89C00032084F898000120BDE8F6
:10249000F081816941F002018161217C826922F031
:1024A0004002012918BF40328261617C826922F4B6
:1024B0008042012908BF02F580428261A17C8269C5
:1024C00022F48052012918BF02F58052826181698D
:1024D00021F44073D4E902120B438361836923F032
:1024E000A4038361036923F010030361AAB1022AE4
:1024F0000FD0012A03D1826942F004020CE0836903
:10250000032A43F080038361036943F010020261F0
:1025100003D1826942F020028261D4E90552E36965
:10252000561E6FF0FF02276A02EB0323013F43EAC6
:102530004663B1F5407F47EA030740F20003CFF658
:10254000FF7303EB054647EA0601C16110D1D4E9E8
:102550000B65D4E90917013F02EB06226FF00F0665
:102560003A4306EB05173A4303EB01411143C160BF
:10257000216E29B1626ED0F8C0301A43C0F8C02075
:10258000E26DCA424AF26001C0F6000109D0D0F8FB
:10259000C820A36E22F0070251F823301A43C0F876
:1025A000C820226C4AB1D0F8BC20636C22F007022C
:1025B00051F823301A43C0F8BC20A26C52B1D0F8B5
:1025C000BC20E36C22F0700251F8233042EA03127F
:1025D000C0F8BC20226D52B1D0F8BC20636D22F44B
:1025E000E06251F8231042EA0121C0F8BC104045D6
:1025F00004D16068816821F0030181600020C4F883
:102600009400C4F89C00012084F898002046FEF74E
:1026100077FEBDE8F0810000B0B5B8B0044602A86E
:10262000C0210025CDE93655CDE934553395FEF767
:10263000F6F84AF200012068C4F20001884201D095
:1026400038B0B0BD4FF4004002904FF080501E9063
:1026500002A8039500F0C4FB08B1FEF7C1FD44F2E7
:10266000E040C5F60200C16841F48071C160C168F4
:1026700001F4807101910199016841F0010101604B
:10268000006833A900F00100019001984FF4C05098
:102690003390022034900020CDE935000920379096
:1026A0000020C5F6020000F073F81320002100227C
:1026B00000F022FA132000F01BFA38B0B0BD000081
:1026C000704700000000000010B5C90716D040F2A6
:1026D0005C2440F21C23C2F20044C2F200434021B9
:1026E0002246FFF741FC002818BF10BDA27B40F234
:1026F0001C212068C2F20041FEF792FD10BD0000CF
:10270000704700000000000090F8981001290CD1DB
:10271000022180F8981001688A6922F001028A611A
:102720000021C0F89C1008467047D0F89C1041F07A
:102730000401C0F89C100120704700000000000058
:10274000704700000000000070470000000000001B
:10275000704700000000000070470000000000000B
:1027600070470000000000007047000000000000FB
:1027700070470000000000007047000000000000EB
:1027800070470000000000007047000000000000DB
:102790002DE9F04F83B00C68002C00F0C68000F1EA
:1027A000264242F2004702F1FF72C5F602074FEAE5
:1027B000B22201920A22B84208BF0922002500274E
:1027C0004FF0010A009209E00C68043734FA0AF26B
:1027D0000AF1010A05F1020500F0A780AAF101093A
:1027E000012202FA09FE14EA0E08EDD0D1F804B075
:1027F0000BF00304A4F1010CBCF1010F11D803226A
:102800008668AA40CB6826EA0202AB401A4382607F
:10281000CBF30013426822EA0E0203FA09F31A43CB
:102820004260032C1ED00323C268AB40022C22EA74
:1028300003028B6803FA05F342EA0302C26011D176
:102840006FF0030207F01C0602EA59020F2302444C
:1028500003FA06F4D2F820C00B692CEA0404B34052
:102860002343136203230268AB404E689A4306F089
:102870000303AB4016F4403F42EA03020260A3D0D8
:1028800044F2F44340F2084EC5F60203C5F6000ECA
:102890001A6842F002021A601A6807F00C0302F08C
:1028A00002020292029A29F00302019C009E092C66
:1028B00038BF26460F2452F80EC09C402CEA040470
:1028C00006FA03F34FF0B04C234342F80E30DCF825
:1028D00000204B6842EA0806DC0258BF22EA0806DC
:1028E0009C02CCF8006040F2040CC5F6000CDCF849
:1028F000002042EA080658BF22EA08069C03CCF8EA
:102900000060DCF8802042EA080658BF22EA080688
:10291000DB03CCF88060DCF87C2042EA080658BF74
:1029200022EA0806CCF87C604EE703B0BDE8F08FE1
:1029300041F20000C5F600400068000C704700003E
:1029400040F2B440C2F2004000687047000000004E
:1029500040F2140040F2B441C2F20040C2F2004121
:1029600000780A681044086070470000000000000A
:1029700080B5032000F0D0F801F0B6F844F2184119
:102980004AF26C13C5F60201C0F600030A68096832
:1029900001F00F01C2F30322595C9A5C01F01F01A0
:1029A00002F01F02D04040F21002C2F2004220FAB0
:1029B00001F1116040F20C01C2F2004108600F20E9
:1029C00000F00AF800281CBF012080BD00F080F84C
:1029D000002080BD00000000B0B540F21401C2F23A
:1029E0000041097801B3044640F20C00C2F20040F5
:1029F0004FF47A72B2FBF1F10068B0FBF1F001F034
:102A00003BFC0F2C4FF001050CD858B94FF0FF30AC
:102A100000222146002500F06FF840F21800C2F2B3
:102A2000004004602846B0BD0120B0BD0000000099
:102A300010B54EF6A05E4178CEF2000E90F800C0C0
:102A40004EF8081CDEF8001021F00101CEF800104D
:102A500041684EF8041C017BC37A827A447B1B06D2
:102A600043EA0171837B41EAC241C27B41EA84416E
:102A7000447A41EA4341007A41EA024141EA0421B1
:102A800041EA400040EA0C00CEF8000010BD000012
:102A90004EF62450CEF20000BFF35F8F016821F4A0
:102AA00080310160002101677047000000000000D4
:102AB0004EF6245140F00100CEF20001086708688C
:102AC00040F480300860BFF34F8FBFF36F8F7047C3
:102AD00081B044F2F440C5F60200016841F0020101
:102AE0000160006800F002000090009801B070479B
:102AF00080B506F0B1F880BD70B514460D460646A7
:102B000006F0BAF82946224602F07AFC0146304621
:102B100006F0BAF870BD000080B506F0C9F880BDB7
:102B2000B0B544F60C05C5F60205296849072968C1
:102B300005D401F00701081A18BF0120B0BD21F02B
:102B4000070108432860FFF7FBFE044655F8080C10
:102B5000800407D4FFF7F4FE001BB0F57A7FF5D9A7
:102B60000120B0BD0020B0BD80B500F06DFF44F283
:102B700020414AF26C12C5F60201C0F60002096853
:102B8000C1F30211515C01F01F01C84080BD00007B
:102B900080B544F2384EC5F6020E5EF8103C5EF881
:102BA000101CC1F3053C5EF80C1CBCF1000FDEF8F4
:102BB000042014D0C1F30011C2F3CC02514300EE43
:102BC000101A03F003010229B8EE400A0CD071B9C3
:102BD0005EF8381C89060DD49FED341A18E00021E8
:102BE0008160C0E9001180BD9FED2F1A10E09FEDBC
:102BF0002D1A0DE05EF8381C49F20002C0F2D03206
:102C0000C1F3C10122FA01F101EE101AB8EE411A26
:102C1000DEF800109FED263A6FF35F2102EE101AE6
:102C2000DEF80010C1F34621B8EE422A00EE032A76
:102C300000EE10CAB7EE003AB8EE400A81EE000A84
:102C400032EE031A02EE101AB8EE422A20EE010A02
:102C500032EE031A80EE011ABCEEC11A80ED001AA2
:102C6000DEF80010C1F3064101EE101AB8EE411A69
:102C700031EE031A80EE011ABCEEC11A80ED011A82
:102C8000DEF80010C1F3066101EE101AB8EE411A29
:102C900031EE031A80EE010ABCEEC00A10EE101AE3
:102CA000816080BD0024744A20BCBE4B0024744C5B
:102CB000000000390000000080B544F2404EC5F627
:102CC000020E5EF8183C5EF8181CC1F3055C5EF855
:102CD000141CBCF1000FDEF8042014D0C1F3002155
:102CE000C2F3CC02514300EE101A03F00301022993
:102CF000B8EE400A0CD071B95EF8401C89060DD4BC
:102D00009FED341A18E000218160C0E9001180BDF8
:102D10009FED2F1A10E09FED2D1A0DE05EF8401C7C
:102D200049F20002C0F2D032C1F3C10122FA01F12E
:102D300001EE101AB8EE411ADEF800109FED263AA7
:102D40006FF35F2102EE101ADEF80010C1F3462186
:102D5000B8EE422A00EE032A00EE10CAB7EE003A9F
:102D6000B8EE400A81EE000A32EE031A02EE101AA3
:102D7000B8EE422A20EE010A32EE031A80EE011A62
:102D8000BCEEC11A80ED001ADEF80010C1F3064156
:102D900001EE101AB8EE411A31EE031A80EE011A54
:102DA000BCEEC11A80ED011ADEF80010C1F3066115
:102DB00001EE101AB8EE411A31EE031A80EE010A44
:102DC000BCEEC00A10EE101A816080BD0024744A67
:102DD00020BCBE4B0024744C0000003900000000F1
:102DE0002DE9F04381B00446C07844F22C49000735
:102DF000C5F6020901D400252EE0A06E4FEA30503E
:102E000003280DD80025DFE800F0020E1714D9F8CA
:102E10000000002540F40030C9F8000055B913E067
:102E200001253DB910E004F10800022102F004FB85
:102E300005464DB1A84611E004F12800022102F038
:102E40008BFB0546002DF5D1D9F82400A16E20F4A6
:102E500040100843C9F824004FF000086078C0070C
:102E600030D0A06D042807D8DFE800F00A131C0357
:102E70000300FDB1A84625E00125002DFAD119E097
:102E8000D9F8000040F40030C9F80000002DF1D15D
:102E900010E004F10800002102F0CEFA0546002DF2
:102EA000E8D107E004F12800002102F055FB0546B7
:102EB000002DDFD1D9F82400A16D20F007000843D0
:102EC000C9F824006078800732D5E06D4FEAB01071
:102ED000042807D8DFE800F00A131C030300FDB143
:102EE000A84625E00125002DFAD119E0D9F8000007
:102EF00040F40030C9F80000002DF1D110E004F1D9
:102F00000800002102F098FA0546002DE8D107E0FC
:102F100004F12800002102F01FFB0546002DDFD13F
:102F2000D9F82400E16D20F4E0700843C9F82400CA
:102F30006078400734D5D4F8A8004FEA70500428D0
:102F400007D8DFE800F00A131C030300FDB1A84610
:102F500026E00125002DFAD119E0D9F8000040F44F
:102F60000030C9F80000002DF1D110E004F1080094
:102F7000002102F061FA0546002DE8D107E004F1D6
:102F80002800002102F0E8FA0546002DDFD1D9F82B
:102F90002C00D4F8A81020F460000843C9F82C00D5
:102FA0006078000734D5D4F8AC004FEA30600428CC
:102FB00007D8DFE800F00A131C030300FDB1A846A0
:102FC00026E00125002DFAD119E0D9F8000040F4DF
:102FD0000030C9F80000002DF1D110E004F1080024
:102FE000002102F029FA0546002DE8D107E004F19E
:102FF0002800002102F0B0FA0546002DDFD1D9F8F3
:103000002C00D4F8AC1020F0E0600843C9F82C0084
:10301000E078800728D5E06C4FEA3010032806D806
:10302000DFE800F002091202B5B1A8461CE0012554
:10303000002DFAD110E0D9F8000040F40030C9F8B2
:103040000000002DF1D107E004F10800022102F098
:10305000F3F90546002DE8D1D9F82000E16C20F005
:1030600030000843C9F820006078C00632D5206ED1
:103070004FEA3030042807D8DFE800F00A131C03B9
:103080000300FDB1A84625E00125002DFAD119E085
:10309000D9F8000040F40030C9F80000002DF1D14B
:1030A00010E004F10800002102F0C6F90546002DE9
:1030B000E8D107E004F12800002102F04DFA0546AE
:1030C000002DDFD1D9F82400216E20F4E040084320
:1030D000C9F824006078800626D5606E4FEA30403B
:1030E000052807D8DFE800F0030A100303039DB1A9
:1030F000A84619E00125002DFAD10DE004F10800E1
:10310000012102F099F904E004F12800012102F004
:1031100023FA0546002DEBD1D9F82400616E20F486
:10312000E0200843C9F824006078400628D5D4F888
:10313000B0004FEA3070052807D8DFE800F0030A36
:10314000100303039DB1A8461AE00125002DFAD112
:103150000DE004F10800012102F06EF904E004F131
:103160002800012102F0F8F90546002DEBD1D9F82D
:103170002C00D4F8B01020F0E0400843C9F82C002F
:103180006078000620D5206FD8B1B0F1005F12D072
:10319000B0F1805F25D1D9F8000040F40030C9F8C3
:1031A000000085B9D9F82400216F20F04050084371
:1031B000C9F8240008E004F10800012102F03CF9FC
:1031C0000546002DEED0A846E078C0072AD0A06CB6
:1031D00003280AD8DFE800F0020D1602D5B1A84690
:1031E00020E00125002DEED1DCE70125002DF6D1F0
:1031F00010E0D9F8000040F40030C9F80000002DBC
:10320000EDD107E004F10800022102F015F90546AE
:10321000002DE4D1D9F82000A16C20F00300084370
:10322000C9F82000A078400642D5D9F8D40340F46C
:103230008070C9F8D403FFF783FB0646D9F8D4039E
:10324000C00505D4FFF77CFB801B6528F6D303255A
:103250006DBBD9F84410D4F8B400414011F4407F5C
:1032600011D0D9F84410D9F8442042F48032C9F87A
:103270004420D9F8442021F4407122F48032C9F866
:103280004420C9F84410B0F5807F0FD1FFF758FBF8
:10329000064641F2893700BFD9F84400800705D4BB
:1032A000FFF74EFB801BB842F6D3032585B1A84635
:1032B0002078C00742D0E06F4FEAF000052823D8FD
:1032C000DFE800F003262C0303037DB3A84635E0B6
:1032D0004FF6CF73D4F8B40059F81C2CC0F2FF039A
:1032E00000F4407122F47C5203EA1013B1F5407FE0
:1032F00008BF1A436FF31F3049F81C2CD9F844104B
:103300000843C9F84400D3E70125002DDED10DE0C4
:1033100004F10800012102F08FF804E004F1280014
:10332000012102F019F90546002DCFD1D9F8280066
:10333000E16F20F038000843C9F8280020788007A2
:1033400024D5A06F052807D8DFE800F0030A100392
:1033500003039DB1A84619E00125002DFAD10DE027
:1033600004F10800012102F067F804E004F12800EC
:10337000012102F0F1F80546002DEBD1D9F8280023
:10338000A16F20F007000843C9F828002078400703
:1033900026D5D4F89400052807D8DFE800F0030A02
:1033A000100303039DB1A8461AE00125002DFAD1B0
:1033B0000DE004F10800012102F03EF804E004F100
:1033C0002800012102F0C8F80546002DEBD1D9F8FC
:1033D0002C00D4F8941020F007000843C9F82C0002
:1033E0002078800628D5D4F890004FEA3070052860
:1033F00007D8DFE800F0030A100303039DB1A846D5
:103400001AE00125002DFAD10DE004F10800002199
:1034100002F012F804E004F12800022102F09CF806
:103420000546002DEBD1D9F82800D4F8901020F0F3
:10343000E0400843C9F828002078400628D5D4F891
:103440009C004FEAB020052807D8DFE800F0030A07
:10345000100303039DB1A8461AE00125002DFAD1FF
:103460000DE004F10800002101F0E6FF04E004F1A2
:103470002800022102F070F80546002DEBD1D9F8A2
:103480002C00D4F89C1020F4E0500843C9F82C001C
:103490002078000628D5D4F8A0004FEA703005281F
:1034A00007D8DFE800F0030A100303039DB1A84624
:1034B0001AE00125002DFAD10DE004F108000021E9
:1034C00001F0BAFF04E004F12800022102F044F800
:1034D0000546002DEBD1D9F82C00D4F8A01020F42B
:1034E00060400843C9F82C002078000716D5D4F8AE
:1034F0008400B0F5805F08D104F12800022102F0B9
:103500002BF8002818BF4FF00108D9F82800D4F88C
:10351000841020F440500843C9F828002078C006E1
:1035200016D5D4F89800B0F5807F08D104F12800B2
:10353000022102F011F8002818BF4FF00108D9F855
:103540002C00D4F8981020F440700843C9F82C00DF
:10355000A078000722D5D4F8A400B0F5003F1AD017
:10356000B0F5803F11D0C8BB04F10800002101F084
:1035700063FF05468DB9D9F82C00D4F8A41020F4C7
:1035800040300843C9F82C0008E004F1280002216B
:1035900001F0E2FF0546002DEDD0A846A0784007D7
:1035A00029D5D4F88800B0F5401F21D0B0F5001F10
:1035B00018D0B0F5801F40F0BF80D9F8000040F46B
:1035C0000030C9F80000ADB9D9F82800D4F8881047
:1035D00020F440100843C9F828000CE00125002D14
:1035E000DBD1C8E704F12800012101F0B5FF054651
:1035F000002DE9D0A846A078C00720D0206DB0F5F6
:10360000803F10D0B8B9D9F8000040F40030C9F8B4
:1036100000009DB9D9F82000216D20F480300843C6
:10362000C9F820000BE004F10800022101F004FFBA
:1036300005461DB9EEE70125002DEBD0A846E07840
:10364000800608D504F12800022101F085FF00283A
:1036500018BF4FF00108D4E900108A037BD5D4F8D5
:1036600080206FF0010303EB3223022B0AD34FEAD1
:1036700032233BB1012B64D1D9F8003043F400333D
:10368000C9F80030002D5FD0CA0267D4CA006FD4D9
:103690008A0279D44A0000F18280B1F1FF3F40F301
:1036A0008F80090200F19780C00707D004F108005D
:1036B000002101F0C1FE002818BF054620798007CF
:1036C00007D504F10800012101F0B6FE002818BF5B
:1036D00005462079400707D504F10800022101F0D2
:1036E000ABFE002818BF05462079000707D504F176
:1036F0002800002101F030FF002818BF054620797E
:10370000C00607D504F12800012101F025FF00289B
:1037100018BF05462079800607D504F1280002214C
:1037200001F01AFF002818BF0125002D18BF012540
:10373000284601B0BDE8F0830125002D7FF45AAF83
:1037400042E70125002D9FD1D9F8283023F440739A
:103750001A43C9F828204546CA0297D5D9F824202B
:10376000636F22F000421A43C9F82420CA008FD5A3
:1037700059F81C2CD4F8B83022F480421A4349F886
:103780001C2C8A027FF586AFD9F82420E36E22F044
:1037900080721A43C9F824204A007FF57EAF59F899
:1037A0001C2C22F4004249F81C2CD4F8BC2059F8F7
:1037B0001C3C1A4349F81C2CB1F1FF3F3FF771AF95
:1037C000D9F82020636D22F040521A43C9F8202016
:1037D00009027FF569AFD9F82810D4F88C2021F4BC
:1037E00040011143C9F82810C0077FF45FAF65E7B7
:1037F0002DE9F04381B0002800F0F48042F2000887
:103800000446C5F200288946D8F8000000F00F00F1
:1038100088420ED2D8F8000020F00F0040EA0900DC
:10382000C8F80000D8F8000000F00F00484540F04C
:10383000D980206844F218474107C5F602070AD527
:1038400021693A6802F07002914204D93A6822F084
:1038500070021143396001070AD561697A6802F084
:103860007002914204D97A6822F0700211437960A3
:10387000C1060AD5A1697A6802F4E062914204D9CE
:103880007A6822F4E0621143796081060AD5E16921
:10389000BA6802F07002914204D9BA6822F070024C
:1038A0001143B96081070AD5E1683A6802F00F0256
:1038B000914204D93A6822F00F0211433960C007DF
:1038C0007ED1206881070AD5E1683A6802F00F02CC
:1038D000914204D23A6822F00F0211433960D8F8BD
:1038E000001001F00F0149450DD9D8F8001021F062
:1038F0000F0141EA0901C8F80010D8F8001001F0E2
:103900000F0149456ED141070AD521693A6802F095
:103910007002914204D23A6822F070021143396079
:1039200001070AD561697A6802F07002914204D2F7
:103930007A6822F0700211437960C1060AD5A16944
:103940007A6802F4E062914204D27A6822F4E0627A
:103950001143796080060AD5E069B96801F0700109
:10396000884204D2B96821F070010843B86000F0C1
:10397000BBF839684AF26C12C0F600023B68C1F32A
:10398000032103F00F03515CD25C01F01F01C8401A
:1039900002F01F0140F2100220FA01F1C2F20042CF
:1039A000116040F20C0140F21802C2F20041C2F272
:1039B000004208601068FFF70FF801B0BDE8F0831F
:1039C000386820F47061D4E90102012841EA02015B
:1039D00039600BD003282BD002282ED157F8181CA1
:1039E000890307D4012001B0BDE8F08357F8181C03
:1039F000C905F7D557F8081C21F00701084347F817
:103A0000080CFEF79DFF064641F2883557F8080C72
:103A1000616800F03800B0EBC10F3FF452AFFEF721
:103A20008FFF801BA842F1D9032001B0BDE8F083CD
:103A300057F8181C8901D5D5DCE757F8181C490739
:103A4000D0D5D7E70000000080B500F04DF844F273
:103A500018414AF26C13C5F60201C0F600030A6869
:103A6000096801F00F01C2F30322595C9A5C02F06D
:103A70001F0220FA02F201F01F0040F2100122FAA8
:103A800000F0C2F20041086040F20C01C2F20041B5
:103A90000A6080BD0000000080B5FFF7D5FF44F24A
:103AA0001C414AF26C12C5F60201C0F60002096818
:103AB000C1F30211515C01F01F01C84080BD00003C
:103AC00080B5FFF7C1FF44F21C414AF26C12C5F603
:103AD0000201C0F600020968C1F30221515C01F045
:103AE0001F01C84080BD000044F20041C5F602013C
:103AF0000869C0F3C20003280FD002282AD070BB87
:103B00000868800649F20000C0F2D03058BF704704
:103B10000968C1F3C101C84070478A6A886AC0F366
:103B2000051CC86ABCF1000F4B6B1DD0C3F3CC035E
:103B300000F00100584302F00302022A00EE100ACE
:103B4000B8EE400A12D0A2B90868800614D49FEDDE
:103B5000261A1EE047F64000C0F27D10704740F67E
:103B60000010C0F23D007047002070479FED1D1A05
:103B70000FE09FED1B1A0CE0086849F20002C0F24A
:103B8000D032C0F3C10022FA00F001EE100AB8EE04
:103B9000411A086B9FED153A6FF35F2002EE100A91
:103BA000086BC0F34620B8EE422A013000EE032A2B
:103BB00000EE10CAB7EE003AB8EE400A81EE000AF5
:103BC00032EE031A20EE010A01EE100AB8EE411A95
:103BD00080EE010ABCEEC00A10EE100A704700BF6A
:103BE0000024744A20BCBE4B0024744C00000039F1
:103BF0002DE9F04381B0F8B18046007844F20049E5
:103C0000C007C5F602095AD0D9F8100000F03801F3
:103C1000D9F82800102905D018290FD100F0030089
:103C200002280BD1D9F80000800344D5D8F804004D
:103C3000002840D101272FE0012718E3D8F80440DD
:103C40002CB1B4F5A02F0DD0B4F5803F10D0D9F829
:103C5000000020F48030C9F80000D9F8000020F4FA
:103C6000802009E0D9F8000040F48020C9F8000065
:103C7000D9F8000040F48030C9F80000FEF760FE7B
:103C80000546A4B1D9F80000800314D4FEF758FE0D
:103C9000401B6428F6D903270020002800F0E782A3
:103CA0000DE000BFFEF74CFE401B6428F3D8D9F8A6
:103CB00000008003F6D40120002800F0D88298F894
:103CC0000000800740F18480D9F8100010F038011E
:103CD000D9F828001CD0182908BF5FEA807017D0D7
:103CE000D8F80C00D9F80010002847D021F01901AD
:103CF0000843C9F80000FEF723FE0546D9F8000086
:103D000040072AD4FEF71CFE401B0228F6D91EE00D
:103D1000D9F80000400704D5D8F80C00002800F0BE
:103D20009681D9F80000D8F80C1020F0190008434B
:103D3000C9F80000FEF704FE054600BFD9F80000F0
:103D400040070AD4FEF7FCFD401B0228F6D90327E2
:103D50000024002C00F08B823AE0FEF7E9FD41F2EE
:103D60000301884223D8D8F81000D9F8041040285D
:103D700021F47C3124D141F4003023E021F0010012
:103D8000C9F80000FEF7DCFD05460126D9F8000061
:103D900010F0040086EA900417D0FEF7D1FD401B16
:103DA0000328F3D30327002C00F0618210E0D9F838
:103DB0000400D8F8101020F0FE4040EA016001E055
:103DC00041EA0030C9F804000124002C00F04F82C1
:103DD00098F80000C00674D5D9F8100000F038013A
:103DE000D9F82800082905D018291CD100F00300B3
:103DF000012818D1D9F80000C00503D5D8F81C0057
:103E0000802859D1FEF794FD41F20301884222D85F
:103E1000D8F82000D9F80410202821F0F84142D128
:103E200041F0804041E0D8F81C000028D9F800009B
:103E300020D040F08000C9F80000FEF781FD054663
:103E4000D9F80000C005DDD4FEF77AFD401B02283A
:103E5000F6D9032731E0D9F80C00D8F8201020F06B
:103E60007C50012440EA0160C9F80C00002C00F0ED
:103E7000FE8126E020F08000C9F80000FEF760FD1A
:103E800005460126D9F8000010F4807086EA102457
:103E90000ED0FEF755FD401B0328F3D30327002C5B
:103EA00000F0E5810DE041EA8060C9F804000124DA
:103EB000002C00F0DC8104E001270024002C00F03D
:103EC000D68198F8000000071CD498F800008006FE
:103ED00031D498F80000400745D4D8F82440002C8D
:103EE00000F09180D9F8100000F03800182840F058
:103EF0008C80012CD9F82810D9F8300040F0A98026
:103F00000127B4E1D8F814000028D9F874003ED095
:103F100040F00100C9F87400FEF712FD054600BF2D
:103F2000D9F874008007D0D4FEF70AFD401B0228A0
:103F3000F6D903279BE1D8F818000028D9F800002B
:103F40004DD040F48050C9F80000FEF7F9FC05465A
:103F5000D9F800008004BCD4FEF7F2FC401B022814
:103F6000F6D9032783E1D9F8000440F48070C9F83A
:103F70000004FEF7E5FC0546D9F80004C0051AD494
:103F8000FEF7DEFC401B6428F6D903276FE120F022
:103F90000100C9F87400FEF7D3FC0546032700BFF3
:103FA000D9F8740080077FF590AFFEF7C9FC401B7D
:103FB0000228F5D95BE1D8F808402CB1052C00F0B7
:103FC0008280012C00F08580D9F8700020F001007B
:103FD000C9F87000D9F8700020F004007DE020F4EA
:103FE0008050C9F80000FEF7ABFC0546032700BF70
:103FF000D9F8000080047FF56CAFFEF7A1FC401BF0
:104000000228F5D933E1002731E1D9F8000020F08A
:104010008070C9F80000FEF793FC022C05464FF0B3
:10402000030709D1D9F80000800178D5FEF788FC94
:10403000401B0228F6D91AE1D9F80000800140F1AE
:10404000E780FEF77DFC401B0228F5D90FE1012730
:104050007EE601F00302D8F828309A4240F0DA8078
:10406000C1F30511D8F82C20914240F0D7800146C9
:10407000D8F830206FF35F21013A914240F0D080B0
:10408000C0F34622D8F8341001398A4240F0CA8081
:10409000C0F30642D8F8381001398A4240F0C48093
:1040A000C0F30660D8F83C100139884240F0BE8069
:1040B000D9F83400D8F84810C0F3CC00814240F061
:1040C000B7800027D3E0D9F8700040F00400C9F8A9
:1040D0007000D9F8700040F00100C9F87000FEF7D8
:1040E0002FFC002C054641F288344FF0030711D015
:1040F000D9F8700080073FF5F0AEFEF721FC401BB9
:10410000A042F5D9B3E000BFFEF71AFC401BA04265
:1041100000F2AD80D9F870008007F5D4DDE608F133
:104120002807D9F8280040F2F33188438ECF08439E
:10413000591E40EA02104FF47E426FF35F21C9F826
:10414000280002EB47204FF4FE0280B2D8F83C3042
:104150000844D8F8381002EB01414FF0FE4201F458
:10416000FE0102EB0362084402F0FE410844C9F874
:104170003000D9F82C004FF6F87120F00100C9F892
:104180002C00D9F83400D8F84820884340EAC2000F
:10419000C9F83400D9F82C00D8F8401020F00C00F1
:1041A0000843C9F82C00D9F82C00D8F8441020F0A6
:1041B00002000843C9F82C00D9F82C0040F48030E4
:1041C000C9F82C00D9F82C0040F40030C9F82C00B4
:1041D000D9F82C0040F48020C9F82C00D9F82C0024
:1041E00040F00100C9F82C00D9F8000040F08070C0
:1041F000C9F80000FEF7A4FB04460327D9F8000025
:10420000800109D4FEF79CFB001B0228F6D92EE0A2
:1042100000272CE001272AE0002728E0012726E0DC
:10422000012724E0012722E0012720E001271EE0EA
:10423000D9F82C0020F00100C9F82C00FEF780FB13
:104240000546FEF77DFBA842FBD0D9F834004FF6B7
:10425000F871D8F848208843002740EAC200C9F81E
:104260003400D9F82C0040F00100C9F82C00F8B255
:1042700001B0BDE8F083000080B501F001FA80BD17
:10428000B0B590F83C20012A4FF002025CD0012327
:1042900080F83C3080F83D2040F2004C0268C4F2C7
:1042A000010C42F4806363455368D2F808E002BF12
:1042B00023F470034C68234341F2FF740D68C4F289
:1042C000000423F07003A24243EA050353600BDCB1
:1042D00040F2FF73C4F200039A4215DCB2F1804F42
:1042E00027D040F2004317E040F2FF33C4F201034D
:1042F0009A4216DC41F60003C4F200039A4218D039
:104300000023C4F2010309E040F60003C4F20003F5
:104310009A420ED040F60043C4F200039A4208D0FD
:104320000CE044F20003C4F201039A4201D062455A
:1043300004D12EF080038968194391600022012185
:1043400080F83D1080F83C201046B0BD0000000011
:1043500060B310B5044690F83D0028B9002084F8F9
:104360003C00204600F024F8022084F83D0020683C
:10437000211D01F019FA012084F8480084F83E005C
:1043800084F83F0084F8400084F8410084F842003B
:1043900084F8430084F8440084F8450084F846001B
:1043A00084F8470084F83D00002010BD01207047CC
:1043B00082B040F600410068C4F20001884214D087
:1043C00040F20041C4F2000188421BD144F2E840AF
:1043D000C5F60200016841F002010160006800F0CA
:1043E00002000190019802B0704744F2E840C5F61F
:1043F0000200016841F008010160006800F0080057
:104400000090009802B0704790F83D10012917D134
:10441000022180F83D10016841F2FF70C4F20000F3
:1044200081420FDC40F2FF70C4F20000814217DCD1
:10443000B1F1804F2BD040F20040C4F2000024E0E4
:104440000120704740F2FF30C4F20100814212DCCB
:1044500041F60000C4F20000814218D0002012E0B2
:1044600040F60000C4F20000814210D040F6004047
:10447000C4F2000009E044F20000C4F201008142ED
:1044800005D040F20040C4F2010081420BD1072266
:104490008868C0F2010202400020062A18BFB2F567
:1044A000803F00D17047086840F00100086000209C
:1044B000704700000000000010B5044690F83C0072
:1044C00001284FF0020008BF10BD0B46012184F8FF
:1044D0003C10882284F83D00CFF6CE7220688168B7
:1044E0001140816019686F290BDDB1F1101F17DAD7
:1044F000B1F5005F25DA70293FD0B1F5805F5AD061
:1045000039E02F2916DD4F2920DC302951D04029F0
:1045100031D15968DA6801F0EFFB2068402148E0AA
:104520002F22C0F2100291421BDCB1F1101F40D0CB
:1045300020221CE0002918BF10293AD0202938D0A9
:1045400019E025D0B1F5801F33D014E050292AD0CE
:10455000602910D15968DA6801F0E2FB2068602117
:1045600027E03022C0F21002914222D04022C0F255
:10457000100291421DD001201EE0D3E90121DB6829
:1045800001F0C2F92068816841F07701816012E092
:10459000D3E90121DB6801F0B7F92068816841F4B3
:1045A0008041816007E05968DA6801F0A5FB206866
:1045B000502101F0B5F90020012184F83D100021BF
:1045C00084F83C1010BD000080B586B040F6004273
:1045D0000068C4F20002002190420591CDE9031168
:1045E000CDE9011114D040F20041C4F2000188422B
:1045F00029D144F2E040C5F60200016841F0010112
:104600000160006800F001000090009840200DE07B
:1046100044F2E040C5F60200016841F0010101608A
:10462000006800F001000090009801200190022035
:104630000290002105900020CDE90311C5F602008B
:1046400001A9FEF7A5F806B080BD0000000000003B
:1046500010B5044690F83C00012801D1022010BD9D
:104660004FEAB2020120052A84F83C001CD8DFE89A
:1046700002F003070B0F1317206801F05DF912E039
:10468000206801F0BDF90EE0206801F011FA0AE09F
:10469000206801F065FA06E0206801F0A5FA02E062
:1046A000206801F0E5FA0020002184F83C1010BDDC
:1046B00060B310B5044690F83D0028B9002084F896
:1046C0003C00204600F024F8022084F83D002068D9
:1046D000211D01F069F8012084F8480084F83E00AB
:1046E00084F83F0084F8400084F8410084F84200D8
:1046F00084F8430084F8440084F8450084F84600B8
:1047000084F8470084F83D00002010BD0120704768
:104710007047000000000000B0B5044690F83C006F
:10472000012801D10220B0BD0D464FEAB201052992
:104730004FF0010084F83C0048D8DFE801F0030B9B
:10474000131B23332068294601F0F6F8206850F83F
:10475000181F1EE02068294601F052F9206850F821
:10476000181F26E02068294601F0A2F9206850F8B9
:104770001C1F0EE02068294601F0F2F9206850F86D
:104780001C1F16E02068294601F02EFA206850F818
:10479000541F41F008010160016821F0040101602B
:1047A00029690FE02068294601F062FA206850F874
:1047B000541F41F400610160016821F480610160CF
:1047C000296909020268114301600020002184F870
:1047D0003C10B0BD0000000060B310B5044690F876
:1047E0003D0028B9002084F83C00204600F024F861
:1047F000022084F83D002068211D00F0D5FF012033
:1048000084F8480084F83E0084F83F0084F84000B3
:1048100084F8410084F8420084F8430084F844009E
:1048200084F8450084F8460084F8470084F83D0089
:10483000002010BD012070477047000000000000FC
:1048400010B5044659B1081F4FEAB000032809D833
:10485000DFE800F0020B0E1104F13F000DE004F15F
:104860003E000AE004F1430007E004F1400004E0E8
:1048700004F1410001E004F14200007801280DD16B
:1048800071B1081F4FEAB00003280DD8DFE800F02F
:1048900002101418022084F83F0014E0012010BD1B
:1048A000022084F83E000EE0022084F843000AE073
:1048B000022084F8400006E0022084F8410002E073
:1048C000022084F842002068012201F00DF84FF622
:1048D000FF702168C4F20000814216DC40F2FF70D4
:1048E000C4F20000814240DD40F60000C4F2000046
:1048F000814267D040F60040C4F20000814261D09E
:1049000041F60000C4F200005AE043F6FF70C4F222
:10491000010081420EDD44F20000C4F20100814238
:1049200013D044F60000C4F2010081420DD044F2DD
:10493000004006E00020C4F20100814205D040F2B0
:104940000040C4F20100814248D141F2FF704A6C3C
:10495000C4F20000814242F4004048640DDC40F2A1
:10496000FF70C4F20000814215DCB1F1804F29D004
:1049700040F20040C4F2000022E040F2FF30C4F2F6
:104980000100814212DC41F60000C4F200008142C5
:1049900018D0002012E040F60000C4F2000081426E
:1049A00010D040F60040C4F2000009E044F20000DC
:1049B000C4F20100814205D040F20040C4F201007F
:1049C00081420BD107228868C0F201020240002018
:1049D000062A18BFB2F5803F00D110BD086840F02C
:1049E00001000860002010BD90F88410012901D159
:1049F000022070472421C0F88810026813681168EB
:104A000023F0005321F00101116000214166136081
:104A10002022C0F8882080F88410084670470000E3
:104A20007047000000000000704700000000000018
:104A3000B0B5044690F88400012801D10220B0BD31
:104A4000012084F884002420C4F8880020680568C8
:104A5000026822F001020260826822F06062114363
:104A60008160204601F070F9206805602020C4F8BC
:104A70008800002084F88400B0BD00000000000021
:104A8000B0B5044690F88400012801D10220B0BDE1
:104A9000012084F884002420C4F888002068056878
:104AA000026822F001020260826822F06042114333
:104AB0008160204601F048F9206805602020C4F894
:104AC0008800002084F88400B0BD000000000000D1
:104AD0007047000000000000704700000000000068
:104AE0007047000000000000B0B50368044640F6BF
:104AF0002F00D9691D680840D3F808E020280CD1A0
:104B000005F020020EF08050801806D0616F002959
:104B100000F0B38020468847B0BD40F60F00084043
:104B200000F09280012040F22012C1F20000C0F299
:104B300000420EEA000C05EA020010EB0C0000F047
:104B40008380C80718BF15F4807007D00120186251
:104B5000D4F8900040F00100C4F8900088070EF0EF
:104B6000010208D53AB102201862D4F8900040F052
:104B70000400C4F89000480708D53AB10420186230
:104B8000D4F8900040F00200C4F8900008070CD55B
:104B900005F0200050EA0C0007D008201862D4F875
:104BA000900040F00800C4F8900008050BD515F0FF
:104BB000806008D04FF400601862D4F8900040F094
:104BC0002000C4F89000D4F89000002855D011F0CF
:104BD000200009D005F020000EF08051401803D0CD
:104BE000616F09B1204688472068D4F8901080682A
:104BF00001F0280100F04000401800F0AE8020468F
:104C000001F0A2F920688068400640F1968000BF5C
:104C1000206850E8020F216820F0400041E80202BD
:104C2000002AF5D1D4F88000002800F0868045F6EF
:104C30003971C0F600010165FCF76AFFE8B1D4F8EC
:104C40008000016D8847B0BD05EA010CE26E5FEAA5
:104C5000CC603ED5012A3CD11020186298684006ED
:104C600043D4B4F85C00B4F85E10B4F85E20002AB7
:104C70001CBF401A5FEA004100D1B0BD216851E875
:104C8000001F226821F4907142E80013002BF5D137
:104C90004FF6FE71CEF6FF71226852E8022F2368AC
:104CA0000A4043E80225002DF6D12021C4F88C10DB
:104CB0000021E166616700BF216851E8001F22689A
:104CC00021F0100142E80013002BF5D102212167E9
:104CD000F7E0C80224D51EF4800021D04FF48010E4
:104CE00018622046FFF7F8FEB0BDD4F8800040F20D
:104CF0000F42C4F202020168914235DC6F22C4F215
:104D00000202914249DC3F22C4F2020291426ADC73
:104D10001022C4F20202914200F08880282281E031
:104D200008060ED505F080000EF40002801808D0A9
:104D3000A16F00297FF4EEAE9FE72046FFF7D0FE7B
:104D4000B0BD5FEA4C6024D4080241D515F0804024
:104D50003ED02046FFF7BCFEB0BD2046FFF7C0FEA8
:104D60000020C4F89000B0BD40F26F42C4F20202CD
:104D700091421EDC40F23F42C4F20202914239DC11
:104D800040F21042C4F2020291424FD040F2284257
:104D900048E0204601F008F9B0BD9F22C4F20202AB
:104DA000914230DC7022C4F2020291423ED088224D
:104DB00038E040F29F42C4F2020291422ADC40F203
:104DC0007042C4F20202914230D040F2884229E09F
:104DD000C8017FF552AFB5F1FF3FC8BFB0BD204657
:104DE000FFF722FEB0BD4022C4F2020291421DD064
:104DF000582217E040F24042C4F20202914215D01C
:104E000040F258420EE0A022C4F2020291420DD0BC
:104E1000B82207E040F2B842C4F20202914205D043
:104E200040F2A042C4F20202914202D1D4F88010B2
:104E30000968043109688AB2002A44D0B4F85C30A9
:104E40009A4240D2A4F85E10C069B0F5807F31D09C
:104E5000206850E8000F216820F4807041E80002CB
:104E6000002AF5D1206850E8020F216820F00100E7
:104E700041E80202002AF5D1206850E8020F2168BB
:104E800020F0400041E80202002AF5D12020C4F8B9
:104E90008C000020E06600BF206850E8000F216809
:104EA00020F0100041E80002002AF5D1D4F880007B
:104EB000FCF74EFB02202067B4F85C00B4F85E10EB
:104EC000401A81B20BE0B4F85C1091427FF4D5AE89
:104ED000C069B0F5807F7FF4D0AE02202067204605
:104EE000FFF79EFDB0BD000010B5E0B10446D0F85C
:104EF000880028B9002084F88400204600F028F8B3
:104F00002420C4F888002068A16A0268002922F0E1
:104F10000101016002D0204600F042FF204601F06E
:104F200057F8012801D1012010BD2068416821F403
:104F300090414160816821F02A018160016841F05F
:104F400001010160204600F09BFF10BD0000000041
:104F5000B0B5B8B0044602A8C0210025CDE9365549
:104F6000CDE934553395FBF75AFC41F20001206836
:104F7000C4F20101884201D038B0B0BD01200290D6
:104F800002A803952195FDF72BFF08B1FCF728F93E
:104F900044F2E040C5F60200016941F010010161F0
:104FA000016901F0100101910199016841F00201CC
:104FB0000160006833A900F00200019001984FF4ED
:104FC00040403390022034900020CDE93500042089
:104FD000379040F20040C5F60200FDF7D9FB2520CE
:104FE00000210022FDF788FD2520FDF781FD38B066
:104FF000B0BD0000000000002DE9F04182B0044681
:10500000D0F8880020283FD10E4600294FF001003B
:105010004BD01746002A48D01D464FF00008C4F870
:1050200090802120C4F88800FDF78AFCA4F8547011
:10503000A4F856700746A168B1F5805F0FD12069CA
:10504000002814BF3046B046064608E0206816F82F
:10505000011B8162B4F856000138A4F85600B4F878
:105060005600A8B18021002220463B46009501F061
:1050700073FAE8B9002EE9D138F8020B216800264E
:105080006FF35F208862E5E7022002B0BDE8F0819F
:105090004021002220463B46009501F05DFA202188
:1050A0000028C4F8881018BF032002B0BDE8F081C2
:1050B0002020C4F88800032002B0BDE8F081000081
:1050C0007047000000000000FEE700000000000044
:1050D000F0B589B040F2E8200522C2F200404AF261
:1050E000000100F1200302260127C4F20001C4C31D
:1050F00000F12C0301604FF4807181600E210025C6
:10510000C560C0F80F5046618761C161A6C3C56321
:10511000042101641221C0E91115C0E91315C0E989
:105120001515C5650322C0E918258166FDF768F9E4
:1051300008B1FCF755F840F27C1440F2E821C2F2C5
:105140000044C2F20041A0222046FBF736FB01A931
:105150002046CDE90155CDE90367CDE90555FCF7BA
:10516000B7FE08B1FCF73CF840F27C10C2F20040F8
:10517000FDF7CAFA08B1FCF733F840F27C100121C0
:10518000C2F200400022FCF72FFE08B1FCF728F81D
:1051900009B0F0BD0000000083B044F2E040C5F665
:1051A0000200016841F080010160016801F08001A6
:1051B00002910299016841F001010160016801F06A
:1051C000010101910199016841F00201016000684B
:1051D00000F002000090009803B07047000000004B
:1051E00010B58EB040F2883040F20042C2F200406A
:1051F0000021CDE90C11CDE90A11CDE90811CDE965
:105200000611CDE90411CDE90211CDE90011C4F276
:1052100000028160C0E9002140F2E7328161C0E90B
:105220000321FFF795F808B1FBF7DAFF4FF4805040
:105230000A9040F288300AA9C2F20040FFF73CF918
:1052400008B1FBF7CDFF40F28830C2F20040FFF713
:105250002FFA08B1FBF7C4FF40F2883007A9C2F269
:105260000040002407940994FFF70AF808B1FBF7FF
:10527000B7FF4FF4FA706946CDE9010440F2883077
:105280000022C2F2004000940494FFF7E1F908B153
:10529000FBF7A6FF40F28830C2F20040FFF794F916
:1052A0000EB010BD0000000010B58EB040F2D4303A
:1052B00040F60042C2F200400021CDE90C11CDE9D8
:1052C0000A11CDE90811CDE90611CDE90411CDE9A6
:1052D0000211CDE90011C4F200020260EF228161E7
:1052E000C0E9012140F2E732C0E90321FFF730F8BD
:1052F00008B1FBF775FF4FF480500A9040F2D430AC
:105300000AA9C2F20040FFF7D7F808B1FBF768FF1F
:1053100040F2D430C2F20040FFF75EFA08B1FBF76A
:105320005FFF40F2D43007A9C2F200400024079486
:105330000994FEF7A5FF08B1FBF752FF602069460C
:10534000CDE9000440F2D4300022C2F200400294C1
:105350000494FFF7E1F908B1FBF742FF40F2D430C3
:10536000C2F20040FFF730F90EB010BD000000009F
:1053700080B540F2204041F20001C2F20040C4F288
:1053800001010C2201604FF4E13141600021C0E9CC
:1053900002110161C0E90521C0E90711C0E9091145
:1053A000FFF7A2FD08B1FBF71BFF40F220400021F0
:1053B000C2F20040FFF764FB08B1FBF711FF40F2B7
:1053C00020400021C2F20040FFF732FB08B1FBF79A
:1053D00007FF40F22040C2F20040FFF705FB002823
:1053E00008BF80BDFBF7FCFE80BD00000000000090
:1053F000FEE7000000000000FEE7000000000000E3
:1054000000F007004FF0FF3C80F00703042B28BF9B
:105410000423033838BF00200CFA03F399430CFA35
:1054200000F301FA00F022EA03010843704700008C
:105430007047000000000000F0B581B044F22C4736
:10544000C5F6020757F8042C02F00302032A02D122
:10545000012001B0F0BD054657F82C0C0C4620F099
:10546000806047F82C0CFDF76BFA064657F82C0CB9
:10547000000105D5FDF764FA801B0228F6D964E027
:1054800057F8040CEE6895E80E0020F47C30012CEF
:1054900040EA0130A2F101016FF35F214FF47E4237
:1054A00002EB432247F8040C92B24FF0FE4302EBAA
:1054B00001004FF4FE012A6901EB064101F4FE01EF
:1054C00003EB0262084402F0FE410844F8603868C9
:1054D000696920F0C00040EA010038603868A969B5
:1054E00020F0200040EA0100386038684FF6F8717B
:1054F00020F0100038603869EA6920EA01004FF4B2
:10550000001140EAC2003861386808BF4FF48011CA
:1055100040F01000002C386008BF4FF400213868BC
:105520000843386057F82C0C40F0806047F82C0C8A
:10553000FDF706FA044600BF57F82C0C000107D40B
:10554000FDF7FEF9001B0328F6D3032001B0F0BDE0
:10555000002001B0F0BD0000F0B581B044F22C474E
:10556000C5F6020757F8042C02F00302032A02D101
:10557000012001B0F0BD054657F82C0C0C4620F078
:10558000805047F82C0CFDF7DBF9064657F82C0C39
:10559000800005D5FDF7D4F9801B0228F6D964E018
:1055A00057F8040CEE6895E80E0020F07C70012C92
:1055B00040EA0150A2F101016FF35F214FF47E42F6
:1055C00002EB432247F8040C92B24FF0FE4302EB89
:1055D00001004FF4FE012A6901EB064101F4FE01CE
:1055E00003EB0262084402F0FE4108447861386827
:1055F000696920F4406040EA010038603868A969B0
:1056000020F4007040EA0100386038684FF6F87105
:1056100020F480703860B869EA6920EA01004FF030
:10562000807140EAC200B861386808BF4FF40001D9
:1056300040F48070002C386008BF4FF48001386857
:105640000843386057F82C0C40F0805047F82C0C79
:10565000FDF776F9044600BF57F82C0C800007D4FC
:10566000FDF76EF9001B0328F6D3032001B0F0BD4F
:10567000002001B0F0BD00007047000000000000F5
:10568000B0B501380024B4EB106F01D00120B0BDDB
:105690004EF210050F21CEF2000568604FF0FF308A
:1056A00003F0F2FAAC60072028602046B0BD00008D
:1056B00080B5FDF74DF980BD4EF6885042F2000CE2
:1056C000CEF20000C5F2002C016841F470010160C7
:1056D000DCF8000000F00F00062806D8DCF8000017
:1056E000072161F30300CCF8000044F200404EF6BD
:1056F0007F52C5F60200CEF6F622016841F00101A4
:1057000001600021016103681A400260DCF800209A
:10571000120706D5DCF80020072363F30302CCF858
:10572000002040F200228161C161C0F202220162C8
:1057300082620022C0F2FF12C26240F28022C0F2F6
:105740000112026341638263C163026441640268BF
:1057500022F48022026041F200020166C5F6004296
:105760001268B1EB527F05D148F208110122C5F24F
:1057700000110A60D0F8D410C90448BF7047D0F8AF
:10578000D41043F2D20241F48051C0F8D41044F254
:105790000001C5F200210A60D0F8D41021F4805134
:1057A000C0F8D4107047000010B540F6FF32C4F2C4
:1057B0000002904202680FDCB0F1804F1DD040F231
:1057C0000043C4F20003984217D040F60003C4F22D
:1057D0000003984211D014E040F60043C4F20003E5
:1057E00098420AD040F20043C4F20103984204D028
:1057F0000023C4F20103984203D122F070024B68E7
:105800001A434FF6FF7343F6FF7CC4F20003C4F261
:10581000010C984210DD60451ADD44F20003C4F229
:10582000010398422CD044F60003C4F201039842CD
:1058300026D044F2004312E040F2FF73C4F20003AA
:10584000984211DCB0F1804F1AD040F2004313E0CF
:105850000023C4F20103984212D040F20043C4F284
:10586000010398420CD00FE040F60003C4F200039D
:10587000984205D040F60043C4F20003984203D199
:1058800022F44072CB681A43D1F814E060450B68EB
:105890008C68C46283620EDD44F20003C4F201032B
:1058A000984213D044F60003C4F2010398420DD08D
:1058B00044F2004306E00023C4F20103984205D0FD
:1058C00040F20043C4F20103984201D10969016327
:1058D000016841F0040101600121416122F0800171
:1058E00041EA0E01016010BD01F01F01012303FA1E
:1058F00001FC036A23EA0C03036202FA01F1026A63
:105900001143016270470000D0F808C011432CF425
:105910007F4241EA0321114381607047000000008B
:105920004FF688738268CFF6CF731A40114341F067
:10593000070181607047000070B5036A43F6FF7588
:10594000026A23F0020322F0010202624268D0F8E8
:1059500018E08C68C4F20105234344F20004D1F836
:1059600000C0A842C4F201040ADDA04213D044F6EC
:105970000006C4F20106B0420DD044F2004606E033
:105980000026C4F20106B04205D040F20046C4F23F
:105990000106B04205D1CE6823F00C0326F00406C0
:1059A0003343A8420ADDA04213D044F60004C4F2F7
:1059B0000104A0420DD044F2004406E00024C4F2E9
:1059C0000104A04205D040F20044C4F20104A04208
:1059D00005D122F44072D1E9054522432A434FF60E
:1059E0008C744260CFF6FE740EEA040646EA0C029E
:1059F000826149684163036270BD000000000000DD
:105A000070B5036A40F20046026A40F4806522F0F5
:105A1000100202624268D0F818C08C68C4F2010615
:105A200023F02003B54243EA041307D1CD686FF099
:105A3000400423F0C00304EA05152B4343F6FF7529
:105A4000D1F800E0C4F20105A84212DD44F20004DE
:105A5000C4F20104A04213D044F60004C4F20104CD
:105A6000A0420DD044F20044C4F20104A04207D089
:105A70000EE00024C4F20104A04201D0B04207D1DC
:105A80004C6922F440628D6942EA840242EA85024E
:105A900048F6FF444260CFF6FF640CEA040646EA8B
:105AA0000E22826149688163036270BD00000000BC
:105AB00070B5036A40F20046026A40F4806522F441
:105AC000807202624268C4F20106D0F81CC08C6881
:105AD00023F40073B54243EA042307D1CD6840F2B2
